:100000000C945D000C9485000C9485000C946203A4
:100010000C9462030C9462030C9485000C9485008C
:100020000C9485000C9485000C9485000C9485003C
:100030000C9485000C9485000C9485000C9485002C
:100040000C9418030C9485000C94E6020C94C002E6
:100050000C9485000C9485000C9485000C9485000C
:100060000C9485000C94850000000008000201003B
:100070000003040700000000000000000000000072
:10008000250028002B0000000000240027002A0083
:10009000040404040404040402020202020203032E
:1000A0000303030301020408102040800102040836
:1000B0001020010204081020FF0411241FBECFEFFE
:1000C000D8E0DEBFCDBF11E0A0E0B1E0E6E7FCE0A4
:1000D00002C005900D92A831B107D9F721E0A8E13F
:1000E000B1E001C01D92A13CB207E1F710E0CDE5FF
:1000F000D0E004C02197FE010E943306CC35D10721
:10010000C9F70E946C030C9439060C94000090E02F
:10011000FC01EC55FF4F249180579F4FFC018491C7
:10012000882399F090E0880F991FFC01EA57FF4F50
:10013000A591B491FC01E458FF4F859194918FB73C
:10014000F894EC91E22BEC938FBF0895AF92BF929D
:10015000CF92DF92EF92FF920F931F93CF93DF9393
:100160006C017B018B01040F151FEB015E01AE18C2
:10017000BF08C017D10759F06991D601ED91FC91E4
:100180000190F081E02DC6010995892B79F7C50111
:10019000DF91CF911F910F91FF90EF90DF90CF9063
:1001A000BF90AF900895FC01538D448D252F30E012
:1001B000842F90E0821B930B541710F0CF96089574
:1001C00001970895FC01918D828D981761F0A28DA1
:1001D000AE0FBF2FB11D5D968C91928D9F5F9F7367
:1001E000928F90E008958FEF9FEF0895FC01918D1D
:1001F000828D981731F0828DE80FF11D858D90E08A
:1002000008958FEF9FEF0895FC01918D228D892F26
:1002100090E0805C9F4F821B91098F73992708950E
:1002200084E291E00E94040121E0892B09F420E09E
:10023000822F089580E090E0892B29F00E94100120
:1002400081110C9400000895FC01A48DA80FB92F12
:10025000B11DA35ABF4F2C91848D90E001968F73EE
:100260009927848FA689B7892C93A089B1898C910D
:10027000837080648C93938D848D981306C002885C
:10028000F389E02D80818F7D80830895EF92FF9226
:100290000F931F93CF93DF93EC0181E0888F9B8DA9
:1002A0008C8D98131AC0E889F989808185FF15C063
:1002B0009FB7F894EE89FF896083E889F989808186
:1002C0008370806480839FBF81E090E0DF91CF9155
:1002D0001F910F91FF90EF900895F62E0B8D10E077
:1002E0000F5F1F4F0F731127E02E8C8D8E110CC0E6
:1002F0000FB607FCFACFE889F989808185FFF5CF31
:10030000CE010E942401F1CFEB8DEC0FFD2FF11DEA
:10031000E35AFF4FF0829FB7F8940B8FEA89FB896D
:1003200080818062CFCFCF93DF93EC01888D8823CB
:10033000B9F0AA89BB89E889F9898C9185FD03C048
:10034000808186FD0DC00FB607FCF7CF8C9185FF2D
:10035000F2CF808185FFEDCFCE010E942401E9CF4D
:10036000DF91CF91089590E0FC01E859FF4F24916F
:10037000FC01EC55FF4F3491FC01E057FF4FE49135
:10038000EE23C9F0222339F0233001F1A8F4213003
:1003900019F1223029F1F0E0EE0FFF1FE458FF4F72
:1003A000A591B4918FB7F894EC91611126C0309566
:1003B0003E233C938FBF08952730A9F02830C9F021
:1003C000243049F7809180008F7D03C080918000A8
:1003D0008F7780938000DFCF84B58F7784BDDBCFAC
:1003E00084B58F7DFBCF8091B0008F778093B00074
:1003F000D2CF8091B0008F7DF9CF3E2BDACF3FB7BF
:10040000F89480911F0190912001A0912101B09159
:10041000220126B5A89B05C02F3F19F00196A11D0A
:10042000B11D3FBFBA2FA92F982F8827BC01CD013E
:10043000620F711D811D911D42E0660F771F881F9D
:10044000991F4A95D1F708958F929F92AF92BF92CC
:100450000F931F93CF93DF93CDB7DEB7A1970FB65E
:10046000F894DEBF0FBECDBF19A2423008F44AE0B7
:100470008E010F5D1F4F842E912CB12CA12CA50154
:1004800094010E940206E62FB901CA01EA3044F540
:10049000E05DD801EE938D01232B242B252B79F7DA
:1004A00090E080E0109769F0FD0101900020E9F7ED
:1004B0003197AF014A1B5B0BBD0184E291E00E94C2
:1004C000A600A1960FB6F894DEBF0FBECDBFDF9198
:1004D000CF911F910F91BF90AF909F908F900895F3
:1004E000E95CD7CF41E050E066E171E084E291E061
:1004F0000C94A600CF92DF92EF92FF92CF93DF93FE
:1005000097FF1BC06B017C016DE284E291E00E94C9
:100510004601EC0166277727CB016C197D098E090E
:100520009F094AE00E9424028C0F9D1FDF91CF910A
:10053000FF90EF90DF90CF9008954AE0DF91CF9148
:10054000FF90EF90DF90CF900C942402CF92DF9237
:10055000EF92FF926B017C01C114D104E104F1041C
:1005600041F00E947805A70196010E94D0056B0119
:100570007C01C701B601FF90EF90DF90CF90089506
:100580001F920F920FB60F9211242F933F934F9308
:100590005F936F937F938F939F93AF93BF93EF93EB
:1005A000FF9384E291E00E942401FF91EF91BF91BB
:1005B000AF919F918F917F916F915F914F913F91FB
:1005C0002F910F900FBE0F901F9018951F920F92B2
:1005D0000FB60F9211242F938F939F93EF93FF9356
:1005E000E0913401F09135018081E0913A01F09180
:1005F0003B0182FD1BC0908180913D018F5F8F7315
:1006000020913E01821741F0E0913D01F0E0EC5D68
:10061000FE4F958F80933D01FF91EF919F918F91B8
:100620002F910F900FBE0F901F9018958081F4CFDF
:100630001F920F920FB60F9211242F933F938F9317
:100640009F93AF93BF9380911B0190911C01A09148
:100650001D01B0911E0130911A0123E0230F2D37A7
:1006600058F50196A11DB11D20931A0180931B011D
:1006700090931C01A0931D01B0931E0180911F0156
:1006800090912001A0912101B09122010196A11D1C
:10069000B11D80931F0190932001A0932101B0937D
:1006A0002201BF91AF919F918F913F912F910F9018
:1006B0000FBE0F901F90189526E8230F0296A11DDC
:1006C000B11DD2CF1F920F920FB60F9211240F902F
:1006D0000FBE0F901F901895CF93DF93CDB7DEB765
:1006E00068970FB6F894DEBF0FBECDBF789484B57F
:1006F000826084BD84B5816084BD85B5826085BD1E
:1007000085B5816085BD80916E00816080936E00AB
:10071000109281008091810082608093810080919D
:10072000810081608093810080918000816080934E
:1007300080008091B10084608093B1008091B0000E
:1007400081608093B00080917A00846080937A0009
:1007500080917A00826080937A0080917A00816033
:1007600080937A0080917A00806880937A0010925A
:10077000C100E0913401F091350182E08083E09185
:100780003001F09131011082E0913201F09133019A
:100790008FEC808310923C01E0913801F091390197
:1007A00086E08083E0913601F0913701808180619D
:1007B0008083E0913601F0913701808188608083E9
:1007C000E0913601F0913701808180688083E0916B
:1007D0003601F091370180818F7D808387E00E9410
:1007E000870086E00E94870084E291E00E94E20098
:1007F0008093230161E0813621F0823609F0F6C052
:1008000060E087E00E94B30169E170E080E090E081
:100810000E94A6022B013C0164E170E080E090E0C0
:100820000E94A6024B015C0164E070E080E090E071
:100830000E94A60269837A838B839C8368EC70E0B4
:1008400080E090E00E94A6026D837E838F8398876C
:1008500064E170E080E090E00E94A60269877A87F8
:100860008B879C8768EC70E080E090E00E94A60295
:100870006D877E878F87988B64E170E080E090E0E1
:100880000E94A602698B7A8B8B8B9C8B64E170E053
:1008900080E090E00E94A6026D8B7E8B8F8B988FFC
:1008A00064E170E080E090E00E94A6026B017C01B0
:1008B00064E170E080E090E00E94A602C301B20112
:1008C0006C5E7F4F8F4F9F4F0E947A020E94720290
:1008D000C501B4016D5D7F4F8F4F9F4F0E947A021B
:1008E0000E94720269817A818B819C816F5F7F4F48
:1008F0008F4F9F4F0E947A020E9472026D817E810B
:100900008F81988560577E4F8F4F9F4F0E947A024C
:100910000E94720269857A858B859C856C5E7F4F0B
:100920008F4F9F4F0E947A020E9472026D857E85D2
:100930008F859889645D7E4F8F4F9F4F0E947A020A
:100940000E94720269897A898B899C89665F7F4FD0
:100950008F4F9F4F0E947A020E9472026D897E899A
:100960008F89988D665F7F4F8F4F9F4F0E947A02CD
:100970000E947202C701B601665F7F4F8F4F9F4F83
:100980000E947A020E9472020E94FF014B015C01E8
:1009900088EEC82E83E0D82EE12CF12C0E94FF01B6
:1009A000681979098A099B09683E73408105910598
:1009B000A8F321E0C21AD108E108F10888EE880EF8
:1009C00083E0981EA11CB11CC114D104E104F10400
:1009D00029F780E090E0892B09F406CF0E941001EE
:1009E000882309F401CF0E940000FECE61E0833627
:1009F00021F0843609F008CF60E086E003CFE4E21E
:100A0000F1E01382128288EE93E0A0E0B0E08483EC
:100A10009583A683B78388E091E09183808385ECFA
:100A200090E09587848784EC90E09787868780ECB8
:100A300090E0918B808B81EC90E0938B828B82ECA9
:100A400090E0958B848B86EC90E0978B868B118E53
:100A5000128E138E148E08958F929F92AF92BF9232
:100A6000CF92DF92EF92FF92CF93DF93EC016881F8
:100A700079818A819B81611571058105910521F438
:100A800064E279ED8BE597E02DE133EF41E050E052
:100A90000E94D00549015A019B01AC01A7EAB1E4CB
:100AA0000E94EF056B017C01ACEEB4EFA50194014F
:100AB0000E94FD05C60ED71EE81EF91EF7FE06C0F1
:100AC00081E0C81AD108E10880E8F80AC882D98212
:100AD000EA82FB82C701B6019F77DF91CF91FF9039
:100AE000EF90DF90CF90BF90AF909F908F90089540
:100AF0008F929F92AF92BF92CF92DF92EF92FF922E
:100B000060910001709101018091020190910301B7
:100B1000611571058105910521F464E279ED8BE59C
:100B200097E02DE133EF41E050E00E94D00549010C
:100B30005A019B01AC01A7EAB1E40E94EF056B01E9
:100B40007C01ACEEB4EFA50194010E94FD05C60E38
:100B5000D71EE81EF91EF7FE06C081E0C81AD108AC
:100B6000E10880E8F80AC0920001D0920101E09209
:100B70000201F0920301C701B6019F77FF90EF9049
:100B8000DF90CF90BF90AF909F908F90089560932B
:100B90000001709301018093020190930301089575
:100BA000052E97FB1EF400940E94E70557FD07D021
:100BB0000E94020607FC03D04EF40C94E705509502
:100BC0004095309521953F4F4F4F5F4F0895909539
:100BD0008095709561957F4F8F4F9F4F08950E942C
:100BE0002406A59F900DB49F900DA49F800D911D8C
:100BF00011240895B7FF0C94EF050E94EF05821BA6
:100C0000930B0895A1E21A2EAA1BBB1BFD010DC078
:100C1000AA1FBB1FEE1FFF1FA217B307E407F507AC
:100C200020F0A21BB30BE40BF50B661F771F881F88
:100C3000991F1A9469F760957095809590959B011E
:100C4000AC01BD01CF010895A29FB001B39FC001C7
:100C5000A39F700D811D1124911DB29F700D811DE8
:100C60001124911D0895EE0FFF1F0590F491E02DC2
:060C70000994F894FFCF87
:100C760001000000000000004601A600D300930119
:080C86000401E200F6007C000D
:00000001FF
