:100000000C945D000C9485000C9485000C94850084
:100010000C9485000C9485000C9485000C9485004C
:100020000C9485000C9485000C9485000C9485003C
:100030000C9485000C9485000C9485000C9485002C
:100040000C94B2030C9485000C9485000C948500EC
:100050000C9485000C9485000C9485000C9485000C
:100060000C9485000C94850000000008000201003B
:100070000003040700000000000000000000000072
:10008000250028002B0000000000240027002A0083
:10009000040404040404040402020202020203032E
:1000A0000303030301020408102040800102040836
:1000B00010200102040810208C0511241FBECFEF70
:1000C000D8E0DEBFCDBF11E0A0E0B1E0E0E2F0E1BA
:1000D00002C005900D92AA34B107D9F721E0AAE435
:1000E000B1E001C01D92A338B207E1F710E0CDE501
:1000F000D0E004C02197FE010E940808CC35D1074A
:10010000C9F70E94FC030C940E080C94000090E0C8
:10011000FC01EC55FF4F249180579F4FFC018491C7
:10012000882399F090E0880F991FFC01EA57FF4F50
:10013000A591B491FC01E458FF4F859194918FB73C
:10014000F894EC91E22BEC938FBF0895AF92BF929D
:10015000CF92DF92EF92FF920F931F93CF93DF9393
:100160006C017B018B01040F151FEB015E01AE18C2
:10017000BF08C017D10759F06991D601ED91FC91E4
:100180000190F081E02DC6010995892B79F7C50111
:10019000DF91CF911F910F91FF90EF90DF90CF9063
:1001A000BF90AF90089590E0FC01E859FF4F249173
:1001B000FC01EC55FF4F3491FC01E057FF4FE491F7
:1001C000EE23C9F0222339F0233001F1A8F42130C5
:1001D00019F1223029F1F0E0EE0FFF1FE458FF4F34
:1001E000A591B4918FB7F894EC91611126C0309528
:1001F0003E233C938FBF08952730A9F02830C9F0E3
:10020000243049F7809180008F7D03C08091800069
:100210008F7780938000DFCF84B58F7784BDDBCF6D
:1002200084B58F7DFBCF8091B0008F778093B00035
:10023000D2CF8091B0008F7DF9CF3E2BDACF0895D9
:1002400090E080E00895FC0101900020E9F73197EB
:10025000AF01481B590BBC018BE691E00C94A60042
:100260008F929F92AF92BF920F931F93CF93DF9382
:10027000CDB7DEB7A1970FB6F894DEBF0FBECDBFE6
:1002800019A2423008F44AE08E010F5D1F4F842E00
:10029000912CB12CA12CA50194010E94E607E62F18
:1002A000B901CA01EA30F4F4E05DD801EE938D01A2
:1002B000232B242B252B79F790E080E0109719F061
:1002C000CD010E942301A1960FB6F894DEBF0FBEA8
:1002D000CDBFDF91CF911F910F91BF90AF909F90B5
:1002E0008F900895E95CE1CFCF93DF930E942301C3
:1002F000EC018CE091E00E9423018C0F9D1FDF91A7
:10030000CF910895CF93DF93EC0160E08E810E943E
:10031000D30061E08E810E94D30060E08E810E9454
:10032000D3008BE891E00197F1F7DF91CF91089529
:10033000CF92DF92EF92FF920F931F93CF93DF93B1
:100340006C017C0187E0E80EF11CD0E0C0E0062FD4
:1003500010E0B8010C2E02C0759567950A94E2F77B
:100360006170F70181917F010E94D3002196C43012
:10037000D10579F7C601DF91CF911F910F91FF90C1
:10038000EF90DF90CF900C948201CF92DF92EF92AA
:10039000FF920F931F93CF93DF93EC01F62E642F00
:1003A0008C810E94D3008D818F3F19F060E00E9404
:1003B000D3000F2D10E08F8584FF25C06E0187E0EC
:1003C000C80ED11CF12CE12CB8010E2C02C0759581
:1003D00067950A94E2F76170F60181916F010E94BE
:1003E000D300FFEFEF1AFF0A88E0E816F10461F787
:1003F000CE01DF91CF911F910F91FF90EF90DF9091
:10040000CF900C948201B80184E0759567958A9528
:10041000E1F7CE010E9498016F2DCE01DF91CF91BF
:100420001F910F91FF90EF90DF90CF900C94980167
:1004300040E0682F8BE691E00C94C501CF93DF93E9
:10044000813029F090917A01986090937A0180939D
:100450007E0110927F0180E48093800180E180938F
:10046000810180E58093820180916F010E94870065
:10047000809170018F3F11F00E948700809171017F
:100480000E948700CBE6D1E09E012B56314080913F
:100490007A0184FD0AC084E090E02196281739078C
:1004A0003CF48E810E948700EFCF88E090E0F5CF8A
:1004B0008BE39DE00197F1F760E080916F010E946E
:1004C000D30060E0809171010E94D300809170019F
:1004D0008F3F19F060E00E94D30080917A0184FD83
:1004E00039C063E08BE691E00E949801CBE4D6E44A
:1004F000CE010197F1F763E08BE691E00E9498014D
:100500002197F1F763E08BE691E00E94980183E583
:1005100092E00197F1F762E08BE691E00E9498018A
:1005200080917A0180620E94180284E080937B01AE
:100530008CE00E94180281E00E9418028BE39FE188
:100540000197F1F782E080937C0186E0DF91CF9103
:100550000C94180280620E9418028BE496E40197C2
:10056000F1F780917A0180620E94180283E592E09F
:100570000197F1F780917A0180620E941802D0CF32
:1005800090917E01891710F08FEF890FE82FF0E02E
:10059000E559FE4F848980680C94180241E00E945E
:1005A000C50181E090E008954F925F926F927F9233
:1005B0008F929F92AF92BF92CF92DF92EF92FF9273
:1005C0000F931F93CF936B017C01742EAC019B01A1
:1005D0000E94E107882399F08FE091E0CF911F916D
:1005E0000F91FF90EF90DF90CF90BF90AF909F90D2
:1005F0008F907F906F905F904F900C9423014601F5
:100600005701E894B7F82FEF3FEF4FE75FE7C501D9
:10061000B4010E94E10781110DC02FEF3FEF4FE7BA
:100620005FE7C501B4010E94170618161CF483E1A8
:1006300091E0D4CF2FEF3FEF4FE75FE4C701B60162
:100640000E946F0718161CF487E191E0C7CF2FEFC7
:100650003FEF4FE75FECC701B6010E94170687FD29
:10066000F3CF20E030E0A901C701B6010E941706D0
:1006700010E000E087FF0CC041E06DE28BE691E006
:100680000E94C501F7FAF094F7F8F09401E010E049
:10069000C0E060E070E080E09FE37C1641F020E085
:1006A00030E040E251E40E941C06CF5FF6CFA70184
:1006B00096010E94AB054B015C010E948E062B0146
:1006C0003C014AE00E943001080F191FCC23C9F1F8
:1006D000C301B2010E94BD069B01AC01C501B4017A
:1006E0000E94AA054B015C0141E06EE28BE691E0BD
:1006F0000E94C5010F5F1F4FC15018F120E030E08C
:1007000040E251E4C501B4010E9474072B013C0191
:100710000E948E064B01B12CA12C4AE0C501B40108
:100720000E943001080F191FC501B4010E94BD06C7
:100730009B01AC01C301B2010E94AA054B015C01FF
:10074000DBCFC801CF911F910F91FF90EF90DF9009
:10075000CF90BF90AF909F908F907F906F905F9061
:100760004F9008951F920F920FB60F9211242F935E
:100770003F938F939F93AF93BF9380914F0190913D
:100780005001A0915101B091520130914E0123E0EE
:10079000230F2D3758F50196A11DB11D20934E0151
:1007A00080934F0190935001A0935101B093520157
:1007B00080914A0190914B01A0914C01B0914D0163
:1007C0000196A11DB11D80934A0190934B01A09306
:1007D0004C01B0934D01BF91AF919F918F913F918B
:1007E0002F910F900FBE0F901F90189526E8230FA2
:1007F0000296A11DB11DD2CF789484B5826084BDCC
:1008000084B5816084BD85B5826085BD85B5816014
:1008100085BD80916E00816080936E001092810092
:10082000809181008260809381008091810081604D
:10083000809381008091800081608093800080910E
:10084000B10084608093B1008091B000816080939A
:10085000B00080917A00846080937A0080917A0061
:10086000826080937A0080917A00816080937A0020
:1008700080917A00806880937A001092C10084E0B1
:100880000E941E0210E4C0E0D0E08FB7F894C09040
:100890004F01D0905001E0905101F09052018FBF74
:1008A00020E034E070E060E04FB7F89480914F01B1
:1008B00090915001A0915101B09152014FBF8C19FC
:1008C0009D09AE09BF09883E9340A105B105D8F442
:1008D00010937C0080917A00806480937A008091EC
:1008E0007A0086FDFCCF909178008091790089276D
:1008F00098278927681779070CF4BC01821793079A
:100900009CF69C01D1CF621B730B072E000C880B49
:10091000990B0E94BF0620E030E040EA50E40E94BC
:10092000740720E030E040E85AE30E94740720E0BA
:1009300030E040E05FE30E94740724EF3DEF44E3C2
:100940005FE30E94740720E030E04AE754E40E942D
:10095000740720E030E049E353E40E941C066093F2
:100960006701709368018093690190936A0120E0A8
:1009700030E040E753E40E9474072DEC3CEC4CE47B
:100980005FE30E9474076093630170936401809336
:1009900065019093660180915F0190916001A09143
:1009A0006101B091620180935B0190935C01A0931F
:1009B0005D01B0935E012FB7F89480914F01909143
:1009C0005001A0915101B09152012FBF80935F015E
:1009D00090936001A0936101B0936201C0905B01AC
:1009E000D0905C01E0905D01F0905E01BC01CD0112
:1009F0006C197D098E099F090E94BD0620E03AEB23
:100A00004BE55AE40E941C06209163013091640179
:100A100040916501509166010E9474072091570131
:100A2000309158014091590150915A010E94AB05F3
:100A300060935701709358018093590190935A0124
:100A40002FE632E143E05CE30E94740760935301B8
:100A500070935401809355019093560180E00E9459
:100A6000C0028BE191E00E942301609167017091C7
:100A700068018091690190916A0142E00E94D4026C
:100A800082E291E00E94740181E00E94C00285E24E
:100A900091E00E9423016091630170916401809153
:100AA00065019091660142E00E94D4028DE291E0DE
:100AB0000E94740182E00E94C00280E391E00E94E3
:100AC00023016091570170915801809159019091D3
:100AD0005A0142E00E94D40289E391E00E9474012D
:100AE00083E00E94C0028EE391E00E9423016091A6
:100AF000530170915401809155019091560142E04B
:100B00000E94D40285E491E00E947401209709F4C8
:100B1000BCCE0E940000B9CEEBE6F1E01382128257
:100B200084E091E09183808387E084838FEF8583E5
:100B300086E0868385E0878384E0808783E0818701
:100B400082E082871386148615861686178681E0D2
:100B50000C941E025058BB27AA270E94C2050C9471
:100B600035070E94270738F00E942E0720F039F43D
:100B70009F3F19F426F40C9424070EF4E095E7FB4C
:100B80000C941E07E92F0E94460758F3BA17620714
:100B900073078407950720F079F4A6F50C9468078D
:100BA0000EF4E0950B2EBA2FA02D0B01B901900188
:100BB0000C01CA01A0011124FF27591B99F0593FCC
:100BC00050F4503E68F11A16F040A22F232F342F14
:100BD0004427585FF3CF469537952795A795F04062
:100BE0005395C9F77EF41F16BA0B620B730B840B77
:100BF000BAF09150A1F0FF0FBB1F661F771F881F2F
:100C0000C2F70EC0BA0F621F731F841F48F4879586
:100C100077956795B795F7959E3F08F0B0CF939578
:100C2000880F08F09927EE0F9795879508950E94F1
:100C3000FA0608F481E008950E9430060C94350706
:100C40000E942E0758F00E94270740F029F45F3FCA
:100C500029F00C941E0751110C9469070C94240779
:100C60000E94460768F39923B1F3552391F3951B2E
:100C7000550BBB27AA2762177307840738F09F5FBD
:100C80005F4F220F331F441FAA1FA9F335D00E2E2A
:100C90003AF0E0E832D091505040E695001CCAF797
:100CA0002BD0FE2F29D0660F771F881FBB1F26175A
:100CB00037074807AB07B0E809F0BB0B802DBF0131
:100CC000FF2793585F4F3AF09E3F510578F00C9400
:100CD0001E070C9469075F3FE4F3983ED4F38695B2
:100CE00077956795B795F7959F5FC9F7880F911D21
:100CF0009695879597F90895E1E0660F771F881F0D
:100D0000BB1F621773078407BA0720F0621B730BBF
:100D1000840BBA0BEE1F88F7E09508950E944E07EA
:100D200088F09F5798F0B92F9927B751B0F0E1F0AC
:100D3000660F771F881F991F1AF0BA95C9F714C05C
:100D4000B13091F00E946807B1E008950C946807F3
:100D5000672F782F8827B85F39F0B93FCCF3869595
:100D600077956795B395D9F73EF4909580957095F2
:100D700061957F4F8F4F9F4F0895E89409C097FB6F
:100D80003EF490958095709561957F4F8F4F9F4F62
:100D90009923A9F0F92F96E9BB279395F6958795A6
:100DA00077956795B795F111F8CFFAF4BB0F11F469
:100DB00060FF1BC06F5F7F4F8F4F9F4F16C0882310
:100DC00011F096E911C0772321F09EE8872F762F46
:100DD00005C0662371F096E8862F70E060E02AF087
:100DE0009A95660F771F881FDAF7880F9695879573
:100DF00097F90895990F0008550FAA0BE0E8FEEF48
:100E000016161706E807F907C0F012161306E407CE
:100E1000F50798F0621B730B840B950B39F40A26C7
:100E200061F0232B242B252B21F408950A2609F4A5
:100E3000A140A6958FEF811D811D089597F99F67A9
:100E400080E870E060E008959FEF80EC0895002452
:100E50000A941616170618060906089500240A941F
:100E600012161306140605060895092E0394000CA5
:100E700011F4882352F0BB0F40F4BF2B11F460FF34
:100E800004C06F5F7F4F8F4F9F4F089557FD90585D
:100E9000440F551F59F05F3F71F04795880F97FB3E
:100EA000991F61F09F3F79F08795089512161306F8
:100EB0001406551FF2CF4695F1DF08C01616170627
:100EC0001806991FF1CF869571056105089408955C
:100ED000E894BB2766277727CB0197F908950E94EE
:100EE000FA0608F48FEF08950E9487070C943507DF
:100EF0000E94270738F00E942E0720F0952311F05A
:100F00000C941E070C94240711240C9469070E946A
:100F1000460770F3959FC1F3950F50E0551F629FF0
:100F2000F001729FBB27F00DB11D639FAA27F00D42
:100F3000B11DAA1F649F6627B00DA11D661F829F69
:100F40002227B00DA11D621F739FB00DA11D621F4E
:100F5000839FA00D611D221F749F3327A00D611D6B
:100F6000231F849F600D211D822F762F6A2F11244D
:100F70009F5750409AF0F1F088234AF0EE0FFF1F80
:100F8000BB1F661F771F881F91505040A9F79E3FD7
:100F9000510580F00C941E070C9469075F3FE4F341
:100FA000983ED4F3869577956795B795F795E7952D
:100FB0009F5FC1F7FE2B880F911D9695879597F936
:100FC00008950E94FA06880B990B0895A1E21A2E43
:100FD000AA1BBB1BFD010DC0AA1FBB1FEE1FFF1FDD
:100FE000A217B307E407F50720F0A21BB30BE40B2D
:100FF000F50B661F771F881F991F1A9469F7609574
:101000007095809590959B01AC01BD01CF0108952D
:10101000EE0FFF1F0590F491E02D0994F894FFCF97
:1010200000000000CE02A60020011F010D0A006E84
:10103000616E00696E66006F766600416D702E3AD3
:101040002000204100506F7765723A200020570041
:10105000456E657267793A2000204B5768004269F7
:0A1060006C6C3A200020504B520047
:00000001FF
