:100000000C9462000C9479080C9452080C948A00A9
:100010000C948A000C948A000C948A000C948A0038
:100020000C948A000C948A000C948A000C948A0028
:100030000C948A000C948A000C948A000C948A0018
:100040000C9408080C948A000C94D6070C94B00702
:100050000C948A000C948A000C948A000C948A00F8
:100060000C948A000C948A000000000024002700F1
:100070002A0000000000250028002B0000000008D6
:10008000000201000003040700000000000000005F
:1000900000000000230026002900040404040404D6
:1000A0000404020202020202030303030303010227
:1000B00004081020408001020408102001020408F6
:1000C0001020A00811241FBECFEFD8E0DEBFCDBFA7
:1000D00011E0A0E0B1E0E2EAF1E202C005900D9289
:1000E000A839B107D9F722E0A8E9B1E001C01D9213
:1000F000A83AB207E1F710E0C2E6D0E004C02197C9
:10010000FE010E94C910C136D107C9F70E940C092F
:100110000C94CF100C940000CF92DF92EF92FF92DC
:10012000CF93DF93B0918402A0E08111AB2F809137
:10013000850290E0880F991FAC0140575F4FC09037
:100140008A02D0908B02E0908C02F0908D0230E019
:1001500020E0FA01C591D491E881B90190E080E0F6
:10016000EB23EA130AC02F5F3F4F6C157D058E0508
:100170009F0578F36FEF7FEFCB01DF91CF91FF9079
:10018000EF90DF90CF900895DC01ED91FC9101900C
:10019000F081E02D0994AF92BF92CF92DF92EF925F
:1001A000FF920F931F93CF93DF936C017B018B0121
:1001B000040F151FEB015E01AE18BF08C017D10771
:1001C00059F06991D601ED91FC910190F081E02DFB
:1001D000C6010995892B79F7C501DF91CF911F9150
:1001E0000F91FF90EF90DF90CF90BF90AF90089568
:1001F000FC01538D448D252F30E0842F90E0821B2D
:10020000930B541710F0CF96089501970895FC01B1
:10021000918D828D981761F0A28DAE0FBF2FB11D09
:100220005D968C91928D9F5F9F73928F90E0089561
:100230008FEF9FEF089580EE91E00E940701809379
:10024000D7010895FC01918D828D981731F0828D30
:10025000E80FF11D858D90E008958FEF9FEF0895D1
:10026000FC01918D228D892F90E0805C9F4F821B35
:1002700091098F739927089580EE91E00E943001D3
:1002800021E0892B09F420E0822F089580E090E09E
:10029000892B29F00E943C0181110C9400000895E3
:1002A000FC01A48DA80FB92FB11DA35ABF4F2C91EB
:1002B000848D90E001968F739927848FA689B789E2
:1002C0002C93A089B1898C91837080648C93938DD9
:1002D000848D981306C00288F389E02D80818F7D7C
:1002E00080830895EF92FF920F931F93CF93DF9334
:1002F000EC0181E0888F9B8D8C8D98131AC0E88962
:10030000F989808185FF15C09FB7F894EE89FF8930
:100310006083E889F98980818370806480839FBFCE
:1003200081E090E0DF91CF911F910F91FF90EF90CE
:100330000895F62E0B8D10E00F5F1F4F0F731127DE
:10034000E02E8C8D8E110CC00FB607FCFACFE88919
:10035000F989808185FFF5CFCE010E945001F1CF50
:10036000EB8DEC0FFD2FF11DE35AFF4FF0829FB78D
:10037000F8940B8FEA89FB8980818062CFCFCF937D
:10038000DF93EC01888D8823B9F0AA89BB89E889BD
:10039000F9898C9185FD03C0808186FD0DC00FB663
:1003A00007FCF7CF8C9185FFF2CF808185FFEDCFE1
:1003B000CE010E945001E9CFDF91CF9108958330A3
:1003C00081F028F4813099F08230A9F008958730C7
:1003D000A9F08830C9F08430B1F4809180008F7D1D
:1003E00003C0809180008F7780938000089584B54A
:1003F0008F7784BD089584B58F7DFBCF8091B00049
:100400008F778093B00008958091B0008F7DF9CFF1
:10041000CF93DF93282F30E0F901E458FF4F849108
:10042000F901E255FF4FD491F901E656FF4FC4910F
:10043000CC23A1F081110E94DF01EC2FF0E0EE0F40
:10044000FF1FE057FF4FA591B491EC91ED2381E0A0
:1004500090E009F480E0DF91CF91089580E090E092
:10046000FACF1F93CF93DF93282F30E0F901E458A0
:10047000FF4F8491F901E255FF4FD491F901E656FF
:10048000FF4FC491CC23A9F0162F81110E94DF01E8
:10049000EC2FF0E0EE0FFF1FEE58FF4FA591B49147
:1004A0008FB7F894EC91111108C0D095DE23DC933E
:1004B0008FBFDF91CF911F910895DE2BF8CFCF939F
:1004C000DF9390E0FC01E255FF4F249186569F4F49
:1004D000FC0184918823C9F090E0880F991FFC01EA
:1004E000E859FF4FA591B491FC01EE58FF4FC5911B
:1004F000D49161110DC09FB7F8948C9120958223FF
:100500008C938881282328839FBFDF91CF91089502
:10051000623051F49FB7F8943C91822F80958323E9
:100520008C93E8812E2BEFCF8FB7F894EC912E2B84
:100530002C938FBFEACF3FB7F89480919D019091A3
:100540009E01A0919F01B091A00126B5A89B05C076
:100550002F3F19F00196A11DB11D3FBFBA2FA92F42
:10056000982F8827BC01CD01620F711D811D911D3F
:1005700042E0660F771F881F991F4A95D1F70895AB
:100580008F929F92AF92BF92CF92DF92EF92FF92A3
:100590004B015C010E949B026B017C010E949B024B
:1005A0006C197D098E099F09683E7340810591058C
:1005B000A8F321E0821A9108A108B10888EEC80EBC
:1005C00083E0D81EE11CF11C81149104A104B10444
:1005D00029F7FF90EF90DF90CF90BF90AF909F9062
:1005E0008F9008952FB7F8946091990170919A01B6
:1005F00080919B0190919C012FBF0895CF92DF9233
:10060000EF92FF920F931F93CF93DF93CDB7DEB797
:10061000C054D1400FB6F894DEBF0FBECDBF0E94CC
:10062000F202009186021091870220918802309197
:1006300089026B017C01C01AD10AE20AF30A970110
:100640008601003D17402105310590F480918E020E
:10065000C05CDE4F0FB6F894DEBF0FBECDBFDF919A
:10066000CF911F910F91FF90EF90DF90CF90089561
:100670006093860270938702809388029093890228
:10068000109281021092800210927F0210927E02DC
:1006900010927D0262E0809182020E945F0261E01E
:1006A00070E080E090E00E94C00261E080918202F0
:1006B0000E945F0260E0809182020E94310280917C
:1006C00083028551823020F58BE291E10197F1F7A9
:1006D00062E0809182020E945F0280918F0290E02E
:1006E0008230910538F0880F991F880F991F059760
:1006F0000197F1F7F89480E00E948C006F3F7F4FE4
:100700008F4F9F4F61F410928E02789480E0A0CFBB
:1007100064E170E080E090E00E94C002D9CF81E007
:100720000E948C006F3F7F4F8F4F9F4F61F38E0170
:100730000F5F1F4F6E012FEBC21A2EEFD20A780106
:1007400080E00E948C00F701608371838283938331
:1007500081E00E948C00F701648375838683978310
:10076000F8E0EF0EF11CEC14FD0451F7789430E042
:1007700020E0F801C080D180E280F380448155817F
:1007800066817781FFEFCF16DF06EF06FF0631F0B7
:100790004F3F8FEF58076807780719F410928E02C1
:1007A000B5CFF90183E0F595E7958A95E1F7E35830
:1007B000FD4F8081880FC416D506E606F70610F1B6
:1007C00080832F5F3F4F085F1F4F2832310589F626
:1007D0004091810220917D0280917E02280F332773
:1007E000331F80917F02280F311D80918002820F7C
:1007F000932F911D99274817190681F681E0809360
:100800008E0226CF8160DCCF0895089590E080E0CD
:1008100008958F929F92AF92BF92EF92FF921F9393
:10082000CF93DF93182F0E94F2024B015C01E12C61
:1008300084E0F82ED0E0C0E01E5010640E94F20266
:10084000681979098A099B09683C71058105910538
:10085000D0F410937C0080917A00806480937A00B9
:1008600080917A0086FDFCCF8091780020917900FC
:10087000322F282FC217D3070CF4E9012E153F059C
:10088000ECF67901DBCFBE016E197F09072E000C53
:10089000880B990B0E94800F20E030E040EA50E482
:1008A0000E94351020E030E040E85AE30E94351005
:1008B000DF91CF911F91FF90EF90BF90AF909F90ED
:1008C0008F900895CF93DF93EC0160E08E810E94BA
:1008D000310261E08E810E94310260E08E810E94CF
:1008E00031028BE891E00197F1F7DF91CF91089504
:1008F000CF92DF92EF92FF920F931F93CF93DF93EC
:100900006C017C0187E0E80EF11CD0E0C0E0062F0E
:1009100010E0B8010C2E02C0759567950A94E2F7B5
:100920006170F70181917F010E9431022196C430EC
:10093000D10579F7C601DF91CF911F910F91FF90FB
:10094000EF90DF90CF900C946204CF92DF92EF9201
:10095000FF920F931F93CF93DF93EC01F62E642F3A
:100960008C810E9431028D818F3F19F060E00E94DE
:1009700031020F2D10E08F8584FF25C06E0187E0C6
:10098000C80ED11CF12CE12CB8010E2C02C07595BB
:1009900067950A94E2F76170F60181916F010E94F8
:1009A0003102FFEFEF1AFF0A88E0E816F10461F761
:1009B000CE01DF91CF911F910F91FF90EF90DF90CB
:1009C000CF900C946204B80184E0759567958A9580
:1009D000E1F7CE010E9478046F2DCE01DF91CF9117
:1009E0001F910F91FF90EF90DF90CF900C947804BF
:1009F00040E0682F80E992E00C94A50481E00E9419
:100A0000F8048BE39FE10197F1F70895CF93DF930B
:100A1000813029F090919F02986090939F0280937B
:100A2000A3021092A40280E48093A50280E1809347
:100A3000A60280E58093A70261E0809194020E9463
:100A40005F02809195028F3F19F061E00E945F0282
:100A500061E0809196020E945F02C0E9D2E09E01AF
:100A60002059324080919F0284FD0BC084E090E0C9
:100A700021962817390744F461E08E810E945F02B5
:100A8000EECF88E090E0F4CF8BE39DE00197F1F7A3
:100A900060E0809194020E94310260E080919602B1
:100AA0000E943102809195028F3F19F060E00E9410
:100AB000310280919F0284FD34C063E080E992E0BE
:100AC0000E947804CBE4D6E4CE010197F1F763E00D
:100AD00080E992E00E9478042197F1F763E080E9D1
:100AE00092E00E94780483E592E00197F1F762E0DA
:100AF00080E992E00E94780480919F0280620E94C7
:100B0000F80484E08093A0028CE00E94F8040E9424
:100B1000FE0482E08093A10286E0DF91CF910C94E5
:100B2000F80480620E94F8048BE496E40197F1F7E0
:100B300080919F0280620E94F80483E592E0019711
:100B4000F1F780919F0280620E94F804D5CF9091C6
:100B5000A302691710F06FEF690FE62FF0E0E0577E
:100B6000FD4F9489890F80680C94F80441E00E943D
:100B7000A50481E090E00895FB0101900020E9F7D1
:100B80003197AF01461B570BDC01ED91FC910280C0
:100B9000F381E02D09948F929F92AF92BF92EF92D2
:100BA000FF920F931F93CF93DF93CDB7DEB7A1973B
:100BB0000FB6F894DEBF0FBECDBF7C01FA01CB01AA
:100BC00019A2223008F42AE08E010F5D1F4F822EF9
:100BD000912CB12CA12CBF01A50194010E94A7105A
:100BE000F901CA016A300CF5605DD8016E938D0180
:100BF000232B242B252B79F790E080E0109721F010
:100C0000BD01C7010E94BC05A1960FB6F894DEBFD6
:100C10000FBECDBFDF91CF911F910F91FF90EF904D
:100C2000BF90AF909F908F900895695CDECFCF9278
:100C3000DF92EF92FF920F931F93CF93DF936B019D
:100C4000770FEE08FF08F7FE1BC0EC016DE20E9473
:100C5000C4008C0144275527BA014C195D096E095F
:100C60007F092AE0CE010E94CB05800F911FDF9102
:100C7000CF911F910F91FF90EF90DF90CF9008954B
:100C80002AE0B701A601DF91CF911F910F91FF904C
:100C9000EF90DF90CF900C94CB052F923F924F9224
:100CA0005F926F927F928F929F92AF92BF92CF92FC
:100CB000DF92EF92FF921F93CF93DF93EC016A01D3
:100CC0007B01722EAB019601CB01B6010E94A210EE
:100CD00062E271E0811126C046015701E894B7F83D
:100CE0002FEF3FEF4FE75FE7C501B4010E94A2106D
:100CF00081110CC02FEF3FEF4FE75FE7C501B40153
:100D00000E94D10E66E271E0181664F02FEF3FEFFB
:100D10004FE75FE4C701B6010E9430101816B4F423
:100D20006AE271E0CE01DF91CF911F91FF90EF90C9
:100D3000DF90CF90BF90AF909F908F907F906F90FB
:100D40005F904F903F902F900C94BC052FEF3FEF9A
:100D50004FE75FECC701B6010E94D10E87FDE0CFDF
:100D600020E030E0A901C701B6010E94D10E312C6C
:100D7000212C87FF09C06DE2CE010E94C4001C0136
:100D8000F7FAF094F7F8F09410E060E070E080E09B
:100D90009FE3711641F020E030E040E251E40E9410
:100DA000D60E1F5FF6CFA70196010E94650E2B019C
:100DB0003C010E944F0F4B015C012AE0BC01A401E1
:100DC000CE010E94CB057C01E20CF31C1123C1F182
:100DD000C501B4010E947E0F9B01AC01C301B201A9
:100DE0000E94640E4B015C016EE2CE010E94C400C1
:100DF000E80EF91E115020F120E030E040E251E40D
:100E0000C501B4010E9435102B013C010E944F0F17
:100E10004B01B12CA12C2AE0B501A401CE010E9406
:100E2000CB05E80EF91EC501B4010E947E0F9B019F
:100E3000AC01C301B2010E94640E4B015C01DACF28
:100E4000C701DF91CF911F91FF90EF90DF90CF907E
:100E5000BF90AF909F908F907F906F905F904F90DA
:100E60003F902F9008950C94BC050E94FE0460E012
:100E700080E00E94A7056EE271E080E992E00E94A6
:100E800033076091DA017091DB0180E992E00E9402
:100E9000170661E080E00E94A70567E371E080E942
:100EA00092E00E9433076091DE017091DF0180E9DA
:100EB00092E00E94170662E871E080E992E00E94E9
:100EC000330762E080E00E94A7056FE371E080E9EC
:100ED00092E00E9433076091DC017091DD0180E9AE
:100EE00092E00E9417066AE471E080E992E00E94B5
:100EF000330763E080E00E94A7056CE471E080E9BD
:100F000092E00E9433074091D1015091D20160914B
:100F1000D3017091D40122E080E992E00E944D0655
:100F200068E571E080E992E00C9433078091DA0182
:100F30009091DB0101969093DB018093DA010C9490
:100F400035078091DA019091DB01181619063CF4FF
:100F500001979093DB018093DA010C943507089593
:100F60001F920F920FB60F9211242F933F934F931E
:100F70005F936F937F938F939F93AF93BF93EF9301
:100F8000FF9380EE91E00E945001FF91EF91BF919D
:100F9000AF919F918F917F916F915F914F913F9111
:100FA0002F910F900FBE0F901F9018951F920F92C8
:100FB0000FB60F9211242F938F939F93EF93FF936C
:100FC000E091F001F091F1018081E091F601F09162
:100FD000F70182FD1BC090818091F9018F5F8F73B3
:100FE0002091FA01821741F0E091F901F0E0E0521E
:100FF000FE4F958F8093F901FF91EF919F918F9113
:101000002F910F900FBE0F901F9018958081F4CFF5
:101010001F920F920FB60F9211242F933F938F932D
:101020009F93AF93BF938091990190919A01A09162
:101030009B01B0919C013091980123E0230F2D3743
:1010400058F50196A11DB11D209398018093990137
:1010500090939A01A0939B01B0939C0180919D0174
:1010600090919E01A0919F01B091A0010196A11DB8
:10107000B11D80939D0190939E01A0939F01B09319
:10108000A001BF91AF919F918F913F912F910F90B0
:101090000FBE0F901F90189526E8230F0296A11DF2
:1010A000B11DD2CF1F920F920FB60F9211242F9322
:1010B0003F934F935F936F937F938F939F93AF93E0
:1010C000BF93EF93FF93E0910201F0910301099523
:1010D000FF91EF91BF91AF919F918F917F916F9110
:1010E0005F914F913F912F910F900FBE0F901F90E6
:1010F00018951F920F920FB60F9211242F933F93C2
:101100004F935F936F937F938F939F93AF93BF930F
:10111000EF93FF93E0910001F09101010995FF9198
:10112000EF91BF91AF919F918F917F916F915F915F
:101130004F913F912F910F900FBE0F901F901895D8
:10114000CF93E0EEF1E01382128288EE93E0A0E00C
:10115000B0E084839583A683B78388E091E0918390
:10116000808385EC90E09587848784EC90E0978776
:10117000868780EC90E0918B808B81EC90E0938B64
:10118000828B82EC90E0958B848B86EC90E0978B41
:10119000868B118E128E138E148EE0E9F2E013828C
:1011A00012828AE191E0918380838DE084838FEFC6
:1011B00085838CE08683CBE0C7838AE0808789E0E3
:1011C000818788E08287138614861586168617869F
:1011D00081E00E940605ADE7B2E08EE015968C93A3
:1011E00015971696CC931697ECEBF0E0E4911796D2
:1011F000EC931797E8EAF0E0E4911896EC931897CF
:1012000040E85EE360E070E01D964D935D936D9362
:101210007C935097CF910895789484B5826084BD73
:1012200084B5816084BD85B5826085BD85B58160EA
:1012300085BD80916E00816080936E001092810068
:101240008091810082608093810080918100816023
:1012500080938100809180008160809380008091E4
:10126000B10084608093B1008091B0008160809370
:10127000B00080917A00846080937A0080917A0037
:10128000826080937A0080917A00816080937A00F6
:1012900080917A00806880937A001092C10084E087
:1012A0000E940605E091F001F091F10182E0808357
:1012B000E091EC01F091ED011082E091EE01F091EE
:1012C000EF018FEC80831092F801E091F401F0912E
:1012D000F50186E08083E091F201F091F3018081D5
:1012E00080618083E091F201F091F3018081886058
:1012F0008083E091F201F091F30180818068808326
:10130000E091F201F091F30180818F7D808362E0B2
:10131000809182020E945F020E94F202605D77402B
:1013200081099109609386027093870280938802F5
:101330009093890287E380938F0260E08EE00E94A1
:101340005F0260E082E00E945F0260E083E00E9452
:101350005F0260E081E10E945F0260E082E10E9442
:101360005F0261E087E00E945F0261E086E00E9428
:101370005F0286E997E090930101809300018091DC
:101380006900836080936900E89A81EA97E090930E
:10139000030180930201809169008C608093690051
:1013A000E99A00E010E0C1E0D0E00E94FE0288234C
:1013B00041F0809183028C3009F462C038F48B30A4
:1013C000F1F060E070E080EC9FE741C08551823031
:1013D000C0F7F0907F026F2D70E0762F66276627AA
:1013E0007F7780918002682B90E080E00E947E0FE2
:1013F0002DEC3CEC4CEC5DE30E9435105DC060913F
:101400007F0270E090E080E00E947E0F4B015C0163
:10141000F0908002F7FE0AC0AC019B0160E070E032
:1014200080E89FEB0E94640E4B015C016F2D6F7092
:1014300070E090E080E00E94800F2DEC3CEC4CECE2
:101440005DE30E943510A50194010E94650E0E9483
:10145000480F7093DF016093DE010E94FE02882333
:1014600051F0809183028B3030F08D3048F18551FE
:10147000823008F40BC460E070E080EC9FE73CC071
:10148000F0907F026F2D70E090E080E00E947E0F70
:101490004B015C01609180026F7070E090E080E031
:1014A0000E94800F2DEC3CEC4CEC5DE30E9435106B
:1014B000A50194010E94650EF7FEC9CF9058C7CFD1
:1014C00060917E0270E090E080E00E94800F2DEC41
:1014D0003CEC4CEC5DE30E9435106B017C016091AB
:1014E0007D0270E090E080E00E94800F9B01AC01E3
:1014F000C701B6010E94650E0E94480F7093DD017E
:101500006093DC0180EE91E00E943001181619060C
:1015100014F40E941B0182E00E940802892B41F012
:101520000E94960768EC70E080E090E00E94C002A4
:1015300083E00E940802892B41F00E94A10768EC19
:1015400070E080E090E00E94C0028091DA0190910A
:10155000DB01181619060CF0ABC38091D8019091ED
:10156000D901892B71F48091D701813611F0811155
:1015700008C061E087E00E943102D093D901C09396
:10158000D8018091D8019091D901019761F480919F
:10159000D701823641F460E087E00E943102109268
:1015A000D9011092D801E090DE01F090DF01809126
:1015B000D5019091D601892B91F48091D701833682
:1015C00031F099E1E916F10454F0811108C061E0AD
:1015D00086E00E943102D093D601C093D50180915C
:1015E000D5019091D601019791F48091D70184366D
:1015F00031F099E1E916F10454F4811108C060E07A
:1016000086E00E9431021092D6011092D50180919D
:10161000D8019091D901019709F0B0C081E190E023
:101620000E94090420E030E040E05FE30E943510B2
:1016300024EF3DEF44E35FE30E94351020E030E00B
:101640004AE754E40E94351020E030E049E353E4D7
:101650000E94D60E6B017C0120E030E04AE754E4A2
:101660000E9435100E94480F7093C8016093C70113
:1016700020E030E040E753E4C701B6010E94351096
:101680002DEC3CEC4CE45FE30E9435106B017C01D7
:10169000C092B901D092BA01E092BB01F092BC01B4
:1016A0008090A9019090AA01A090AB01B090AC01EC
:1016B0008092A5019092A601A092A701B092A801E4
:1016C0000E94F2026093A9017093AA018093AB017A
:1016D0009093AC01681979098A099B090E947E0FD1
:1016E00020E03AEB4BE55AE40E94D60EA7019601A2
:1016F0000E9435102091A1013091A2014091A301D7
:101700005091A4010E94650E6B017C01C092A10161
:10171000D092A201E092A301F092A40120E030E077
:101720004AE754E40E9435100E94480F7093C601A6
:101730006093C50120E030E040E251E4C701B6010A
:101740000E9435109B01AC012093CD013093CE0156
:101750004093CF015093D0016091D1017091D2019B
:101760008091D3019091D4010E94650E6093D101C4
:101770007093D2018093D3019093D4018091D501CD
:101780009091D601019709F0B0C082E190E00E94EB
:10179000090420E030E040E05FE30E94351024EFD0
:1017A0003DEF44E35FE30E94351020E030E04AE77C
:1017B00054E40E94351020E030E049E353E40E94F5
:1017C000D60E6B017C0120E030E04AE754E40E9431
:1017D00035100E94480F7093C4016093C30120E04C
:1017E00030E040E753E4C701B6010E9435102DEC0C
:1017F0003CEC4CE45FE30E9435106B017C01C0922D
:10180000BD01D092BE01E092BF01F092C001809074
:10181000B5019090B601A090B701B090B801809248
:10182000B1019092B201A092B301B092B4010E94B2
:10183000F2026093B5017093B6018093B701909363
:10184000B801681979098A099B090E947E0F20E076
:101850003AEB4BE55AE40E94D60EA70196010E948E
:1018600035102091AD013091AE014091AF01509102
:10187000B0010E94650E6B017C01C092AD01D09257
:10188000AE01E092AF01F092B00120E030E04AE713
:1018900054E40E9435100E94480F7093C201609377
:1018A000C10120E030E040E251E4C701B6010E94EE
:1018B00035109B01AC012093C9013093CA014093BC
:1018C000CB015093CC016091D1017091D2018091F4
:1018D000D3019091D4010E94650E6093D101709361
:1018E000D2018093D3019093D4016091DE01709175
:1018F000DF0180EE91E00E9417066BE571E080EE5B
:1019000091E00E9433076091DC017091DD0180EE6F
:1019100091E00E9417066BE571E080EE91E00E9475
:1019200033076091DA017091DB0180EE91E00E9453
:1019300017066BE571E080EE91E00E94330740915D
:10194000D1015091D2016091D3017091D40122E074
:1019500080EE91E00E944D066BE571E080EE91E033
:101960000E9433076091C7017091C80180EE91E039
:101970000E9417066BE571E080EE91E00E9433074C
:101980006091C5017091C60180EE91E00E9417063A
:101990006BE571E080EE91E00E9433076091C30136
:1019A0007091C40180EE91E00E9417066BE571E032
:1019B00080EE91E00E9433076091C1017091C201F5
:1019C00080EE91E00E9417066BE571E080EE91E0F9
:1019D0000E9433074091CD015091CE016091CF011B
:1019E0007091D00122E080EE91E00E944D066BE5FF
:1019F00071E080EE91E00E9433074091C90150915F
:101A0000CA016091CB017091CC0122E080EE91E09F
:101A10000E944D066BE571E080EE91E00E94330775
:101A20000E94350768E572E080E090E00E94C00205
:101A30000E94FE0460E080E00E94A7056EE271E073
:101A400080E992E00E9433076091DA017091DB0136
:101A500080E992E00E9417066DE571E080E992E06E
:101A60000E94BC0561E080E00E94A7058091D8013A
:101A70009091D901892B31F460E671E080E992E020
:101A80000E9433078091D8019091D901019731F4D8
:101A90006CE671E080E992E00E94330762E080E04A
:101AA0000E94A7056091C7017091C80180E992E08A
:101AB0000E94170667E771E080E992E00E94330711
:101AC00062E089E00E94A7054091B9015091BA01F6
:101AD0006091BB017091BC0122E080E992E00E941C
:101AE0004D066CE771E080E992E00E94330763E005
:101AF00080E00E94A7056091C1017091C20180E958
:101B000092E00E9417066EE771E080E992E00E9481
:101B1000330763E089E00E94A7054091CD01509111
:101B2000CE016091CF017091D00122E080E992E076
:101B30000E944D0668E571E080E992E00E9433075B
:101B400068E572E080E090E00E94C0020E94FE041E
:101B500060E080E00E94A70567E371E080E992E021
:101B60000E9433076091DE017091DF0180E992E00D
:101B70000E94170661E871E080E992E00E94BC05CE
:101B80006DE571E080E992E00E94BC0561E080E0D3
:101B90000E94A7058091D5019091D601892B31F43F
:101BA00065E871E080E992E00E9433078091D501F9
:101BB0009091D601019731F46FE871E080E992E0ED
:101BC0000E94330762E080E00E94A7056091C30194
:101BD0007091C40180E992E00E94170667E771E006
:101BE00080E992E00E94330762E089E00E94A70545
:101BF0004091BD015091BE016091BF017091C00143
:101C000022E080E992E00E944D066CE771E080E9F5
:101C100092E00E94330763E080E00E94A705609194
:101C2000C1017091C20180E992E00E9417066EE73F
:101C300071E080E992E00E94330763E089E00E944E
:101C4000A7054091C9015091CA016091CB017091E3
:101C5000CC0122E080E992E00E944D0668E571E047
:101C600080E992E00E94330760E971E080E090E053
:101C70000E94C0020115110509F497CB0E943C0196
:101C8000882309F492CB0E9400008FCB60917D02E3
:101C900070917E0276276727762790E080E00E9489
:101CA0007E0F2DEC3CEC4CEC5DE30E94351024CC17
:101CB000892B09F0ACCC60E087E00E9431021092E1
:101CC000D9011092D8019BCC5058BB27AA270E945B
:101CD0007C0E0C94F60F0E94E80F38F00E94EF0F74
:101CE00020F039F49F3F19F426F40C94E50F0EF41C
:101CF000E095E7FB0C94DF0FE92F0E94071058F3E3
:101D0000BA17620773078407950720F079F4A6F5E0
:101D10000C9429100EF4E0950B2EBA2FA02D0B0178
:101D2000B90190010C01CA01A0011124FF27591B20
:101D300099F0593F50F4503E68F11A16F040A22F26
:101D4000232F342F4427585FF3CF46953795279597
:101D5000A795F0405395C9F77EF41F16BA0B620B96
:101D6000730B840BBAF09150A1F0FF0FBB1F661FDD
:101D7000771F881FC2F70EC0BA0F621F731F841F20
:101D800048F4879577956795B795F7959E3F08F046
:101D9000B0CF9395880F08F09927EE0F9795879508
:101DA00008950E94BB0F08F481E008950E94EA0E96
:101DB0000C94F60F0E94EF0F58F00E94E80F40F0CD
:101DC00029F45F3F29F00C94DF0F51110C942A1075
:101DD0000C94E50F0E94071068F39923B1F3552383
:101DE00091F3951B550BBB27AA276217730784072E
:101DF00038F09F5F5F4F220F331F441FAA1FA9F3C4
:101E000035D00E2E3AF0E0E832D091505040E695B1
:101E1000001CCAF72BD0FE2F29D0660F771F881F12
:101E2000BB1F261737074807AB07B0E809F0BB0B05
:101E3000802DBF01FF2793585F4F3AF09E3F510519
:101E400078F00C94DF0F0C942A105F3FE4F3983E77
:101E5000D4F3869577956795B795F7959F5FC9F702
:101E6000880F911D9695879597F90895E1E0660F83
:101E7000771F881FBB1F621773078407BA0720F0FC
:101E8000621B730B840BBA0BEE1F88F7E095089565
:101E90000E944F0F6894B1110C942A1008950E946B
:101EA0000F1088F09F5798F0B92F9927B751B0F0CD
:101EB000E1F0660F771F881F991F1AF0BA95C9F7CE
:101EC00014C0B13091F00E942910B1E008950C9433
:101ED0002910672F782F8827B85F39F0B93FCCF3E6
:101EE000869577956795B395D9F73EF4909580954B
:101EF000709561957F4F8F4F9F4F0895E89409C06B
:101F000097FB3EF490958095709561957F4F8F4F2C
:101F10009F4F9923A9F0F92F96E9BB279395F69542
:101F2000879577956795B795F111F8CFFAF4BB0FC0
:101F300011F460FF1BC06F5F7F4F8F4F9F4F16C024
:101F4000882311F096E911C0772321F09EE8872FAE
:101F5000762F05C0662371F096E8862F70E060E06A
:101F60002AF09A95660F771F881FDAF7880F9695E3
:101F7000879597F90895990F0008550FAA0BE0E887
:101F8000FEEF16161706E807F907C0F0121613063B
:101F9000E407F50798F0621B730B840B950B39F47B
:101FA0000A2661F0232B242B252B21F408950A26E1
:101FB00009F4A140A6958FEF811D811D089597F921
:101FC0009F6780E870E060E008959FEF80EC0895DF
:101FD00000240A9416161706180609060895002408
:101FE0000A9412161306140605060895092E039482
:101FF000000C11F4882352F0BB0F40F4BF2B11F4F6
:1020000060FF04C06F5F7F4F8F4F9F4F089557FD54
:102010009058440F551F59F05F3F71F04795880F56
:1020200097FB991F61F09F3F79F0879508951216ED
:1020300013061406551FF2CF4695F1DF08C0161699
:1020400017061806991FF1CF86957105610508944A
:102050000895E894BB2766277727CB0197F9089561
:102060000E94BB0F08F48FEF08950E9448100C9453
:10207000F60F0E94E80F38F00E94EF0F20F0952332
:1020800011F00C94DF0F0C94E50F11240C942A101E
:102090000E94071070F3959FC1F3950F50E0551FF4
:1020A000629FF001729FBB27F00DB11D639FAA27AD
:1020B000F00DB11DAA1F649F6627B00DA11D661FFC
:1020C000829F2227B00DA11D621F739FB00DA11D1D
:1020D000621F839FA00D611D221F749F3327A00DD7
:1020E000611D231F849F600D211D822F762F6A2F73
:1020F00011249F5750409AF0F1F088234AF0EE0FD8
:10210000FF1FBB1F661F771F881F91505040A9F704
:102110009E3F510580F00C94DF0F0C942A105F3F16
:10212000E4F3983ED4F3869577956795B795F79540
:10213000E7959F5FC1F7FE2B880F911D96958795B8
:1021400097F908950E94BB0F880B990B0895A1E29F
:102150001A2EAA1BBB1BFD010DC0AA1FBB1FEE1F21
:10216000FF1FA217B307E407F50720F0A21BB30B6C
:10217000E40BF50B661F771F881F991F1A9469F7E8
:1021800060957095809590959B01AC01BD01CF0144
:102190000895EE0FFF1F0590F491E02D0994F89437
:0221A000FFCF6F
:1021A20004040404000000007201CB00F800BF0127
:1021B20030010701220100000000B605CB00060431
:1021C20005046E616E00696E66006F76660050658A
:1021D2006F706C653A200054656D702E3A2000488D
:1021E200756D69646974793A20002500546F742E04
:1021F20020436F73743A20005273007C000D0A0072
:102202004C696768743A204F464620004C696768FB
:10221200743A204F4E20006D416D70005700576890
:1022220000202A430046616E3A204F46462000466F
:08223200616E3A204F4E2000BE
:00000001FF
