:100000000C9462000C948A000C948A000C948A0070
:100010000C948A000C948A000C948A000C948A0038
:100020000C948A000C948A000C948A000C948A0028
:100030000C948A000C948A000C948A000C948A0018
:100040000C94FE050C948A000C94CC050C94A60527
:100050000C948A000C948A000C948A000C948A00F8
:100060000C948A000C948A000000000023002600F3
:10007000290000000000240027002A0000000000E2
:10008000250028002B0004040404040404040202D4
:100090000202020203030303030301020408102007
:1000A0004080010204081020010204081020000012
:1000B0000008000201000003040700000000000027
:1000C0000000480611241FBECFEFD8E0DEBFCDBF31
:1000D00011E0A0E0B1E0EAE1F0E102C005900D928C
:1000E000AC32B107D9F721E0ACE2B1E001C01D921A
:1000F000AC3DB207E1F710E0C2E6D0E004C02197C2
:10010000FE010E940008C136D107C9F70E94890686
:100110000C940B080C940000AF92BF92CF92DF9228
:10012000EF92FF920F931F93CF93DF936C017B01AC
:100130008B01040F151FEB015E01AE18BF08C0173D
:10014000D10759F06991D601ED91FC910190F081B0
:10015000E02DC6010995892B79F7C501DF91CF9173
:100160001F910F91FF90EF90DF90CF90BF90AF90D5
:100170000895FC01538D448D252F30E0842F90E0AD
:10018000821B930B541710F0CF9608950197089592
:10019000FC01918D828D981761F0A28DAE0FBF2F5B
:1001A000B11D5D968C91928D9F5F9F73928F90E0B1
:1001B00008958FEF9FEF0895FC01918D828D981720
:1001C00031F0828DE80FF11D858D90E008958FEF5D
:1001D0009FEF0895FC01918D228D892F90E0805C26
:1001E0009F4F821B91098F739927089585E391E0B2
:1001F0000E94EA0021E0892B09F420E0822F089573
:1002000080E090E0892B29F00E94F60081110C9487
:1002100000000895FC01A48DA80FB92FB11DA35AA9
:10022000BF4F2C91848D90E001968F739927848F16
:10023000A689B7892C93A089B1898C918370806439
:100240008C93938D848D981306C00288F389E02DDA
:1002500080818F7D80830895EF92FF920F931F938B
:10026000CF93DF93EC0181E0888F9B8D8C8D981369
:100270001AC0E889F989808185FF15C09FB7F89475
:10028000EE89FF896083E889F989808183708064C1
:1002900080839FBF81E090E0DF91CF911F910F910C
:1002A000FF90EF900895F62E0B8D10E00F5F1F4F1B
:1002B0000F731127E02E8C8D8E110CC00FB607FC2A
:1002C000FACFE889F989808185FFF5CFCE010E94B8
:1002D0000A01F1CFEB8DEC0FFD2FF11DE35AFF4F1B
:1002E000F0829FB7F8940B8FEA89FB898081806246
:1002F000CFCFCF93DF93EC01888D8823B9F0AA8903
:10030000BB89E889F9898C9185FD03C0808186FDD0
:100310000DC00FB607FCF7CF8C9185FFF2CF80811F
:1003200085FFEDCFCE010E940A01E9CFDF91CF9189
:10033000089590E0FC01E255FF4F2491FC01E65640
:10034000FF4F3491FC01EA57FF4FE491EE23C9F0CF
:10035000222339F0233001F1A8F4213019F12230A1
:1003600029F1F0E0EE0FFF1FE458FF4FA591B49183
:100370008FB7F894EC91611126C030953E233C93E1
:100380008FBF08952730A9F02830C9F0243049F7ED
:10039000809180008F7D03C0809180008F77809353
:1003A0008000DFCF84B58F7784BDDBCF84B58F7DB0
:1003B000FBCF8091B0008F778093B000D2CF809137
:1003C000B0008F7DF9CF3E2BDACF3FB7F894809104
:1003D000310190913201A0913301B091340126B5E1
:1003E000A89B05C02F3F19F00196A11DB11D3FBF6D
:1003F000BA2FA92F982F8827BC01CD01620F711D3C
:10040000811D911D42E0660F771F881F991F4A9535
:10041000D1F708958F929F92AF92BF92CF92DF92C1
:10042000EF92FF924B015C010E94E5016B017C01A0
:100430000E94E5016C197D098E099F09683E734091
:1004400081059105A8F321E0821A9108A108B1085D
:1004500088EEC80E83E0D81EE11CF11C81149104C3
:10046000A104B10429F7FF90EF90DF90CF90BF90E7
:10047000AF909F908F9008950F931F93CF93DF932A
:10048000DA01A9019801EC017F836E83FB01E65636
:10049000FF4FE491E887FB01EA57FF4FE491E987BA
:1004A000E881F9810480F581E02DBD01DF91CF91D4
:1004B0001F910F9109946F927F928F929F92AF92AA
:1004C000BF92CF92DF92EF92FF920F931F93CF9341
:1004D000DF93CDB7DEB7AC970FB6F894DEBF0FBE93
:1004E000CDBFDC011696ED91FC91319609F480C0E8
:1004F00059013A016B018C01FE0131964F0188E2EE
:10050000DF011D928A95E9F7D801ED91FC910484F1
:10051000F585E02DB401C80109957C01892B09F00E
:1005200051C01AA619A61CA61BA6D801ED91FC91D4
:100530000684F785E02D9E01255D3F4FAE01475DA6
:100540005F4FB401C80109957C01892BD9F5A1142D
:10055000B10439F088E2F401D50101900D928A9539
:10056000E1F709A51AA5C114D10479F0612F772705
:1005700067FD7A95072E000C880B990B0E947A076D
:10058000F60160837183828393836114710489F01F
:100590008CA5682F782F770F770B072E000C880B10
:1005A000990B0E947A07D3016D937D938D939C9351
:1005B0001397012B39F48BA59CA5892B19F496E18F
:1005C000E92EF12CC701AC960FB6F894DEBF0FBE32
:1005D000CDBFDF91CF911F910F91FF90EF90DF90F2
:1005E000CF90BF90AF909F908F907F906F90089525
:1005F00087E1E82EF12CE6CF8F929F92AF92BF92C7
:10060000CF92DF92EF92FF920F931F93CF93DF93DE
:10061000EC018B016A017901E881F9810284F3859B
:10062000E02D0995B82EB801685F7F4FE881F98108
:100630000284F385E02DCE010995982EB801605F04
:100640007F4FE881F9810284F385E02DCE01099581
:10065000A82EB801685E7F4FE881F9810284F38596
:10066000E02DCE010995882EB801605E7F4FE881AC
:10067000F9810284F385E02DCE0109959B2D990D1A
:100680009A0D980D891319C09A2D882DF601918322
:1006900080839B2D892DF7019183808390E080E0FA
:1006A000DF91CF911F910F91FF90EF90DF90CF904E
:1006B000BF90AF909F908F90089585E190E0F0CF2C
:1006C00047E050E080E0FB012191BF01042E01C012
:1006D000220F0A94EAF7820F41505109A0F70895BA
:1006E0003F924F925F926F927F928F929F92AF92C2
:1006F000BF92CF92DF92EF92FF920F931F93CF930F
:10070000DF93EC01162F7A0169010E94E5014B018C
:100710005C01312C111138843601660C771C660C93
:10072000771C85E0681A71082701440C551C440C9D
:10073000551C85E0481A510810E000E060E070E0C8
:10074000CB012A813B814C815D8126173707480701
:1007500059070CF10115110599F582E0E816F1042D
:100760001CF0C2010197F1F70E94E50168197909AF
:100770008A099B09E985F0E0EE0FFF1FE859FF4F5A
:10078000A591B4912C910F5F1F4F3885232323111E
:1007900005C097FFD6CF6FEF7FEFCB01DF91CF91F1
:1007A0001F910F91FF90EF90DF90CF90BF90AF908F
:1007B0009F908F907F906F905F904F903F900895A3
:1007C00082E0C816D10484F2C301CCCF0F931F93EB
:1007D000CF93DF93DA01A9019801EC017F836E8347
:1007E000FB01E656FF4FE491E887FB01EA57FF4F14
:1007F000E491E987E881F9810190F081E02DBD0164
:10080000DF91CF911F910F910994CF92DF92EF92D8
:10081000FF920F931F93CF93DF93CDB7DEB7289747
:100820000FB6F894DEBF0FBECDBFDC011696ED917A
:10083000FC91319609F440C08A017B0119821A8229
:100840001B821C821D821E821F821886DC01ED9194
:10085000FC910480F581E02DAE014B5F5F4FBE013E
:100860006F5F7F4F09956C01892BB1F4E114F1049E
:1008700041F069817A818B819C810E944207F70156
:1008800060830115110541F06D817E818F8198850E
:100890000E944207D8016C93C60128960FB6F894BF
:1008A000DEBF0FBECDBFDF91CF911F910F91FF90A3
:1008B000EF90DF90CF90089587E1C82ED12CECCF38
:1008C000FC0101900020E9F73197AF01481B590B5B
:1008D000BC0185E391E00C948C008F929F92AF92C3
:1008E000BF920F931F93CF93DF93CDB7DEB7A1973E
:1008F0000FB6F894DEBF0FBECDBF19A2423008F488
:100900004AE08E010F5D1F4F842E912CB12CA12C3B
:10091000A50194010E94DE07E62FB901CA01EA3061
:10092000F4F4E05DD801EE938D01232B242B252BCD
:1009300079F790E080E0109719F0CD010E946004F3
:10094000A1960FB6F894DEBF0FBECDBFDF91CF9159
:100950001F910F91BF90AF909F908F900895E95C89
:10096000E1CF0E940608EF92FF920F931F93CF935F
:10097000DF93EC018B0188E2DB011D928A95E9F798
:100980008E819F819927FC01E656FF4F24918A575B
:100990009F4FFC018491882399F090E0880F991F64
:1009A000FC01EE58FF4FA591B491FC01E458FF4FB4
:1009B000859194918FB7F894EC91E22BEC938FBFD3
:1009C00060E08E810E94990164E170E080E090E037
:1009D0000E940A0261E08E810E9499018E819F81AE
:1009E0009927FC01E656FF4F24918A579F4FFC013F
:1009F00084918823C9F090E0880F991FFC01EE587C
:100A0000FF4FA591B491FC01E458FF4F45915491DB
:100A10009FB7F8948C91E22FE0958E238C93DA01A6
:100A20008C91E823EC939FBF8FE590E00197F1F75D
:100A3000E881F9810084F185E02D26E030E04AE08C
:100A400050E060E0CE0109956E3171058105910598
:100A50006CF4982F872F762F66276061CB01DF918A
:100A6000CF911F910F91FF90EF900895E881F98148
:100A70000084F185E02D26E030E04AE050E061E0BE
:100A8000CE0109957801B8E2EB0EF11C62337105D5
:100A90008105910534F4982F872F762F66276161A1
:100AA000DDCFE881F9810084F185E02D26E030E09A
:100AB0004AE050E060E0CE0109956831710581059A
:100AC000910534F4982F872F762F66276261C6CF61
:100AD000E881F9810084F185E02D26E030E04AE0EC
:100AE00050E061E0CE0109956B30710581059105FB
:100AF00034F4982F872F762F66276361AFCF21E0DC
:100B000069327105810591050CF420E0F80121930B
:100B10008F01EE15FF0529F6E881F9810084F18542
:100B2000E02D26E030E04AE050E060E0CE0109959B
:100B3000683171058105910534F4982F872F762F40
:100B4000662764618BCF70E060E088CF1F920F92C0
:100B50000FB60F9211242F933F934F935F936F9390
:100B60007F938F939F93AF93BF93EF93FF9385E30F
:100B700091E00E940A01FF91EF91BF91AF919F9187
:100B80008F917F916F915F914F913F912F910F9036
:100B90000FBE0F901F9018951F920F920FB60F92D5
:100BA00011242F938F939F93EF93FF93E09145012F
:100BB000F09146018081E0914B01F0914C0182FD62
:100BC0001BC0908180914E018F5F8F7320914F01E8
:100BD000821741F0E0914E01F0E0EB5CFE4F958F03
:100BE00080934E01FF91EF919F918F912F910F90E4
:100BF0000FBE0F901F9018958081F4CF1F920F9217
:100C00000FB60F9211242F933F938F939F93AF931F
:100C1000BF9380912D0190912E01A0912F01B09151
:100C2000300130912C0123E0230F2D3758F5019628
:100C3000A11DB11D20932C0180932D0190932E01B5
:100C4000A0932F01B0933001809131019091320136
:100C5000A0913301B09134010196A11DB11D809383
:100C6000310190933201A0933301B0933401BF91CD
:100C7000AF919F918F913F912F910F900FBE0F9049
:100C80001F90189526E8230F0296A11DB11DD2CF03
:100C9000E5E3F1E01382128288EE93E0A0E0B0E099
:100CA00084839583A683B78384E091E091838083D6
:100CB00085EC90E09587848784EC90E09787868721
:100CC00080EC90E0918B808B81EC90E0938B828B19
:100CD00082EC90E0958B848B86EC90E0978B868BF2
:100CE000118E128E138E148EE2EDF1E080E49BE4FF
:100CF000ACE4B0E082839383A483B5838FEF9FEF4E
:100D0000978386838087818786E191E091838083C2
:100D10000895CF93DF9300D0CDB7DEB7789484B534
:100D2000826084BD84B5816084BD85B5826085BDE7
:100D300085B5816085BD80916E00816080936E0075
:100D40001092810080918100826080938100809167
:100D50008100816080938100809180008160809318
:100D600080008091B10084608093B1008091B000D8
:100D700081608093B00080917A00846080937A00D3
:100D800080917A00826080937A0080917A008160FD
:100D900080937A0080917A00806880937A00109224
:100DA000C100E0914501F091460182E08083E0912D
:100DB0004101F09142011082E0914301F091440120
:100DC0008FEC808310924D01E0914901F0914A012E
:100DD00086E08083E0914701F09148018081806145
:100DE0008083E0914701F091480180818860808391
:100DF000E0914701F0914801808180688083E09113
:100E00004701F091480180818F7D808380E0E82E4A
:100E100080E0F82E1A82198210E000E09E012F5F18
:100E20003F4FAE014E5F5F4F6EE070E082ED91E0AC
:100E30000E94E603892BE1F46A8170E090E080E093
:100E40004AE00E946D0486E291E00E94600469819C
:100E500070E090E080E04AE00E946D0488E291E05A
:100E60000E94600468EE73E080E090E00E940A0255
:100E7000E114F10479F20E94F600882359F20E94ED
:100E80000000C8CF0E9449076894B1110C94D8079C
:100E900008950E94BD0788F09F5798F0B92F9927B1
:100EA000B751B0F0E1F0660F771F881F991F1AF055
:100EB000BA95C9F714C0B13091F00E94D707B1E0DC
:100EC00008950C94D707672F782F8827B85F39F0DB
:100ED000B93FCCF3869577956795B395D9F73EF4EE
:100EE00090958095709561957F4F8F4F9F4F089596
:100EF000E89409C097FB3EF49095809570956195B4
:100F00007F4F8F4F9F4F9923A9F0F92F96E9BB2769
:100F10009395F695879577956795B795F111F8CFE5
:100F2000FAF4BB0F11F460FF1BC06F5F7F4F8F4F50
:100F30009F4F16C0882311F096E911C0772321F046
:100F40009EE8872F762F05C0662371F096E8862FDE
:100F500070E060E02AF09A95660F771F881FDAF735
:100F6000880F9695879597F9089557FD9058440FE7
:100F7000551F59F05F3F71F04795880F97FB991FF8
:100F800061F09F3F79F087950895121613061406B5
:100F9000551FF2CF4695F1DF08C016161706180642
:100FA000991FF1CF86957105610508940895E8941D
:100FB000BB2766277727CB0197F90895A1E21A2E60
:100FC000AA1BBB1BFD010DC0AA1FBB1FEE1FFF1FED
:100FD000A217B307E407F50720F0A21BB30BE40B3D
:100FE000F50B661F771F881F991F1A9469F7609584
:100FF0007095809590959B01AC01BD01CF0108953E
:10100000EE0FFF1F0590F491E02D099481E090E030
:0A101000F8940C940B08F894FFCF3D
:10101A00000000002C018C00B9007901EA00C80028
:10102A00DC00000000000504E6035B023C027003DA
:0C103A006003B304FC027C000D0A0000FF
:00000001FF
